:020000040800F2
:10000000685B0020910300086DC50008C58B0008DF
:1000100019BB0008F52D0008A12901080000000007
:1000200000000000000000000000000021D10008D6
:10003000A938000800000000E9CC000831D9000808
:10004000AB030008AB030008AB030008AB030008D8
:10005000AB030008AB030008AB030008AB030008C8
:10006000D13A0008AB030008AB030008AB0300085B
:10007000AB030008AB030008AB030008AB030008A8
:10008000AB03000800000000AB030008AB0300084E
:100090005D280108AB030008AB030008AB030008B0
:1000A000AB030008CDD90008AB030008AB03000880
:1000B000DDD90008AB030008AB030008C98B0008BA
:1000C000AB030008AB030008AB030008AB03000858
:1000D000AB030008AB03000869F2000879F20008DE
:1000E000AB030008AB030008AB030008AB03000838
:1000F000AB030008AB030008AB03000800000000DE
:1001000000000000AB03000800000000AB03000883
:100110008DDC000800000000AB030008AB03000802
:10012000AB030008AB030008AB030008AB030008F7
:10013000AB0300080000000000000000AB03000853
:10014000AB030008AB030008000000000000000043
:10015000000000000000000000000000000000009F
:10016000000000000000000000000000AB030008D9
:10017000AB030008000000000000000000000000C9
:1001800000000000AB0300080000000000000000B9
:10019000000000000000000000000000000000005F
:1001A0000000000000000000AB030008AB030008E3
:1001B000AB030008AB030008AB030008000000001D
:1001C00000000000AB030008000000000000000079
:1001D000AB030008AB03000800F002F800F0C8F819
:1001E00014A696E8000CB244B344DA4501D100F0FD
:1001F000BFF8BAE80F000FA696E83000A5EB04059B
:1002000004EB0607AAEB0704A7F101074FEA15154F
:100210004FEA3414A4F10104AC4201D300F0A8F871
:1002200013F0010F18BFFB1A43F0010300F001F8AF
:10023000DBE71847C0E50100E0E501000A444FF0A4
:10024000000C10F8013B13F0070408BF10F8014B35
:100250001D1108BF10F8015B641E05D010F8016B7A
:10026000641E01F8016BF9D113F0080F1EBF10F8DE
:10027000014BAD1C0C1B09D16D1E58BF01F801CB01
:10028000FAD505E014F8016B01F8016B6D1EF9D584
:100290009142D6D37047000070470000002300242D
:1002A00000250026103A28BF78C1FBD8520728BF86
:1002B00030C148BF0B6070476E2900F09D827029E5
:1002C00000F0DF8366291DF0C08765291DF0BD871A
:1002D00067291DF0BA8761291DF0B98703681B0AD9
:1002E00028BF41F08001692900F04A82642900F0AA
:1002F0004782752900F044826F2900F06D837829C8
:1003000000F0AB83E92900F00783E42900F00483BF
:10031000F52900F00183EF2900F06A83F82900F045
:10032000AA830368DB0928BF41F08001632901F03B
:100330004984732901F04E84E32901F05984F3299B
:1003400001F05E84002070471FB51DF038FF02F0F9
:1003500025F90400002000211DF068F8401C6060B1
:10036000002000211DF04CF8E0601FBD10B510BD4D
:1003700002F0E6F81146FFF7E7FF1AF04BF902F03A
:10038000D7F903B4FFF7F2FF03BC02F043FC00000F
:100390000948804709480047FEE7FEE7FEE7FEE719
:1003A000FEE7FEE7FEE7FEE7FEE7FEE70448054955
:1003B000054A064B70470000B9D90008D90100086A
:1003C00068370020685B00206857002068570020CD
:1003D00053EA020C00F069802DE9F04B4FF0000663
:1003E000002B1FBFB3FA83F503FA05F424FA05F6D0
:1003F0005E4012BF1643B2FA82F502FA05F4C5F167
:1004000020051EBF22FA05FC44EA0C04203556EAFA
:10041000044C4FEA144418BF641C4FF000084FF01E
:100420000009904271EB030C39D3002919BFB1FACE
:1004300081F701FA07F6B0FA80F700FA07F6C7F17C
:1004400020071EBF20FA07FC46EA0C062037B6FB41
:10045000F4FCA7EB0507103F07F01F0BCBF12006BC
:100460002CFA06F60CFA0BFB44BFB3460026202FED
:10047000A4BF5E464FF0000B5BEA060C08BF4FF0CE
:10048000010B19EB0B0948EB0608ABFB027C06FBE2
:1004900002CC0BFB03CCC01B71EB0C01C1E70B467C
:1004A000024641464846BDE8F08B13B5084318BFE5
:1004B0004FF0FF300146AFF30080BDE81C407047AD
:1004C0000FB41CB5084B06AA7B44694600900598FA
:1004D00000F0ABF904460020694600F0B9F9204667
:1004E0001CBC5DF814FB0000850300000FB400B5D0
:1004F0008DB010A9099000910B904FF0FF300A9039
:1005000000200C90064878440690064878446A46D5
:1005100007900F9909A800F04BFD0DB05DF814FB92
:10052000C70A0000DF0A000010B5431C02E010F803
:10053000011B71B18107FAD14FF0013202C88C1A48
:100540008C4314EAC211F9D0C01A0A0603D0C01EA7
:1005500010BDC01A10BD0A0401D0801E10BD0902D2
:10056000FCD0401E10BD032A40F2308010F0030C76
:1005700000F0158011F8013BBCF1020F624498BFF6
:1005800011F801CB00F8013B38BF11F8013BA2F193
:10059000040298BF00F801CB38BF00F8013B11F00E
:1005A000030300F09B86083AC0F0088051F8043B32
:1005B000083A51F804CBA0E80810F5E7121D5CBF1B
:1005C00051F8043B40F8043BAFF30080D20724BF4E
:1005D00011F8013B11F801CB48BF11F8012B24BFE2
:1005E00000F8013B00F801CB48BF00F8012B704731
:1005F00001B5FFF7B8FF01BD01B501F0FF031146DA
:1006000043EA032242EA024200F003F801BD4FF040
:1006100000020429C0F0128010F0030C00F01B80CF
:10062000CCF1040CBCF1020F18BF00F8012BA8BFDD
:1006300020F8022BA1EB0C0100F00DB85FEAC17CA1
:1006400024BF00F8012B00F8012B48BF00F8012B54
:1006500070474FF0000200B5134694469646203985
:1006600022BFA0E80C50A0E80C50B1F12001BFF46B
:10067000F7AF090728BFA0E80C5048BF0CC05DF8D1
:1006800004EB890028BF40F8042B08BF704748BF1F
:1006900020F8022B11F0804F18BF00F8012B704793
:1006A00070477047704710B500F04AFE006810BDF3
:1006B00010B5044600F044FE046010BD70B5044659
:1006C00085690068C10601D5302600E02026C007F4
:1006D00007D070BDD4E9012130469047206A401C04
:1006E00020626D1EF6D570BD70B504468569007830
:1006F000C00707D170BDD4E9012120209047206AAE
:10070000401C20626D1EF6D570BD09684A0501D5F2
:1007100040B27047C905FCD500B2704709684A0568
:1007200001D5C0B27047C905FCD580B2704770B51D
:100730000C460546012A05D02878800600D5EA69CE
:10074000002302E0012305E05B1C934202D2E05C3F
:100750000028F9D1A869E618C01AA861286A1844C7
:1007600028622846FFF7AAFF04E0D5E9012114F822
:10077000010B9047B442F8D32846FFF7B5FF70BD90
:100780002DE9F0410646002410687529314616A56A
:1007900010D0FFF7BAFF002802DA404213A507E0A5
:1007A00031688A0701D512A502E0490704D511A5D1
:1007B000012401E0FFF7B2FF00210A2206F124071D
:1007C00009E0B0FBF2FCB0FBF2F302FB1C0030309E
:1007D00078541846491C0028F3D123462A4630464F
:1007E000BDE8F04100F0FEBD000000002D0000005B
:1007F0002B0000002000000011680268006A530509
:1008000001D508700AE0D30501D5088006E013067B
:1008100003D5C217C1E9000200E00860012070475B
:1008200001694A1C02610878704700B58FB0CDE9B4
:1008300001310021059105497944CDE903101146A4
:10084000684600F029F90FB000BD0000E5FFFFFF8A
:100850000A6802F8010B0A60704700002DE9FF5F8B
:1008600015468A460446DFF8AC80F8440027D8E9EC
:1008700000103E46CDE9001010E03AF816106A4626
:1008800002A801F034FE411C07D02178890603D567
:10089000E269391891420DD80744761C2078800609
:1008A00002D5E069B84205DDAE42E6DB3AF8160053
:1008B0000028E2D1A069C01BA0612046FFF7FEFE20
:1008C000D8E90010CDE90010002017E03AF8181020
:1008D0006A4602A801F00BFEB0F1FF3F81460BD043
:1008E00000250DF1080B05E0D4E901211BF80500F6
:1008F00090476D1C4D45F7D308F10100B04280468A
:10090000E4DB206A384420622046FFF7EDFEBDE8B4
:10091000FF9F0000E2DA01002DE9F0418046D21D80
:1009200022F007020025D2E90002F52915A614D00D
:10093000011E72F1000106DA0023D0EB030063EB25
:10094000020211A608E0D8F800108B0701D50FA607
:1009500002E0490701D50EA601251146002408F141
:10096000240704E000F0F0FC30323A55641C50EAF1
:100970000102F7D12B46324621464046BDE8F04100
:1009800000F030BD000000002D0000002B00000032
:100990002000000030B4002100F1240408E002F03F
:1009A0000705D208303542EA4372DB086554491C1A
:1009B00052EA0305F3D10468002310A2250708D5E5
:1009C00004F020040C4304D0C46901230CA2641E6B
:1009D000C46130BC00F006BD10B504462146106865
:1009E000FFF79CFE02462046BDE810400023D1E7F9
:1009F000D21D22F00701D1E90023CBE7000000005F
:100A000030000000F0B40D460188090502D5214CE4
:100A10007C4402E01F4C7C440E34002100F124068B
:100A200008E002F00F071209E75D42EA03721B09B2
:100A30007754491C52EA0307F3D1027800231207C6
:100A400004D5702D06D009B1022311342246F0BC22
:100A500000F0C8BC01231034F8E770B504460D4619
:100A600021461068FFF75AFE024629462046BDE897
:100A700070400023C6E7D21D22F00703D3E900230C
:100A8000C0E70368126843F0200303600823C361D2
:100A90000023B7E744D901002DE9F05F89460446F9
:100AA0004FF0000ADFF874B1FB44C0F820A02046E4
:100AB000E1688847002874D0252806D0D4E90121B0
:100AC0009047206A401C2062F1E700265F462046DE
:100AD000E16888472028054607DB312D05D27819C3
:100AE00010F8200C08B10643F1E7B00701D526F055
:100AF0000406C4F81CA00027C4F818A02A2D09D0A9
:100B000028461CF081FB38B304EB8708303DC8F859
:100B1000185019E059F8041B204604EB8702916134
:100B2000E1688847012F054618D1E069002820DADE
:100B300026F020061DE0D8F8180000EB800005EB39
:100B400040003038C8F818002046E168884705465C
:100B50001CF05AFB0028EED1012F0AD02E2D08D10F
:100B60002046E16888477F1C0546022F46F0200694
:100B7000C4DBA069002803DA404246F00106A06108
:100B8000F00701D026F010066C2D0BD0682D09D08F
:100B90004C2D39D06A2D35D0742D35D07A2D33D0E7
:100BA00016E038E0E1682F4620468847B8420546FF
:100BB00009D16C2F26D04FF48060E16806432046AF
:100BC0008847054604E06C2F1AD04FF48070064326
:100BD0000DB3A5F14100192802D8203546F400666E
:100BE0004A462946204626604E46FFF765FB80B1FF
:100BF00001280BD0F61D26F0070000F1080956E782
:100C00004020E4E78020D8E70020D6E706F1040979
:100C10004DE7284652E7206ABDE8F09FD4D801008E
:100C20002DE9FF4F1C4691464FF0FF3581B0002162
:100C30008A468846D4E90167A16902986D1C8847F5
:100C4000216A834688470028F6D1BBF1FF3F0CD0CC
:100C5000002F26F4C0661ADD700615D5BBF12B0FE8
:100C60000AD0BBF12D0F0FD104E04FF0FF3005B0DB
:100C7000BDE8F08F46F48066A16902986D1C884734
:100C80007F1E8346002F02DDBBF1300F03D0B9F188
:100C9000000F2AD025E0A1696D1C02987F1E46F442
:100CA00000768847002F834605DDBBF1780F06D01C
:100CB000BBF1580F03D0B9F1000F10D011E0B9F11A
:100CC000000F02D0B9F1100F0BD1A1696D1C029871
:100CD0007F1E26F4007688478346102000E0082017
:100CE00081464FEAE970009017E00A20F8E7434692
:100CF000AAFB0928DDF800C07F1E03FB098046F42B
:100D0000007605F101050AFB0C0112EB0B0A0298B3
:100D100041EBEB78A16988478346002F06DD494601
:100D2000584600F071FF5FEA000BE0D5E1690298D8
:100D30008847B00502D46FF0010098E7F00718D19A
:100D4000700610D55146700505D50023D1EB03017F
:100D500063EB080200E042462068031D2360006840
:100D6000C0E9001205E02068011D21600068C0E9AB
:100D700000A828467BE72DE9FF5F1D464FF0FF3BAB
:100D800091464FF000085F46D5E90146A9690198F0
:100D90007F1C8847296A824688470028F6D1BAF125
:100DA000FF3F0CD0002E24F4C06419DD600614D57A
:100DB000BAF12B0F09D0BAF12D0F0ED103E058462E
:100DC00004B0BDE8F09F44F48064A96901987F1CD9
:100DD0008847761E8246002E02DDBAF1300F03D01E
:100DE000B9F1000F26D032E0A969761E01987F1C68
:100DF00044F400748847002E824605DDBAF1780F6E
:100E000006D0BAF1580F03D0B9F1000F10D01EE090
:100E1000B9F1000F02D0B9F1100F18D1A969761EEF
:100E200001987F1C24F4007488478246102002E059
:100E3000082000E00A20814609E0A96908FB0908AA
:100E4000761E01987F1C44F4007488478246002E69
:100E500005DD4946504600F0D7FE0028EDDAE96985
:100E600001988847A00502D46FF00100A8E7E007C9
:100E700025D1600613D5600502D5C8F1000000E059
:100E8000404629680A1D2A600968220501D50870B4
:100E900015E0220701D5088011E008600FE02868FE
:100EA000011D29600068210502D580F8008006E058
:100EB000210702D5A0F8008001E0C0F80080384684
:100EC0007EE72DE9FF5F4FF000089946144646463D
:100ED0009169D2E901A7DDF838B001988847054645
:100EE00059EA0B0005D009E0A1690198761C8847F2
:100EF0000546216A284688470028F5D1681C03D09A
:100F00005FEACA7005D015E04FF0FF3004B0BDE8CD
:100F1000F09F2068011D2160D0F800800AE05FEAA0
:100F2000CA7001D108F8015BA169761C01987F1E87
:100F300088470546002F1ADD681C18D0B9F1000F4C
:100F40000DD0E81705EBD060421120F01F0059F8D2
:100F500022102A1A012090400142E0D107E0BBF1A3
:100F6000000FDCD12846216A88470028D7D0E169E4
:100F700001988847BBF1000F07D1002E05DD5FEA1D
:100F8000CA7002D1002188F80010A068B84203DDC1
:100F9000BBF1000F03D017B16FF00100B6E7304688
:100FA000B4E70000026811441378016018467047E6
:100FB000D1600549794451610449794411620021A5
:100FC0001161114600F02EBEEDFFFFFF1504000079
:100FD000426842B1016811F8013B23B1521EC0E9D9
:100FE0000012184670470121C160881E7047426890
:100FF0005AB1C368016843B983688B4205D0491E62
:10100000521CC0E90012002070474FF0FF307047BB
:101010002DE9FF4F4FF000089A461446C146464658
:1010200083B0D2E901B7CDF80080CDF80480916992
:1010300004988847109905465AEA010005D009E04E
:10104000A1690498761C88470546216A2846884786
:101050000028F5D1681C03D05FEACB7005D02AE0E8
:101060004FF0FF3007B0BDE8F08F2068011D216010
:10107000D0F800801FE002A86A46E9B201F017FA32
:10108000411C07D0801C09D04FF000095FEACB70EB
:1010900007D00AE0E169049888473EE04FF0010973
:1010A00004E0BDF8081028F8021B7F1EA16904980F
:1010B000761C88470546002F1ADD681C18D0BAF147
:1010C000000F0DD0E81705EBD060421120F01F0093
:1010D0005AF822102A1A012090400142CBD107E091
:1010E00010980028C7D12846216A88470028C2D016
:1010F000E16904988847B9F1000F0ED1109830B912
:10110000002E04DD5FEACB7001D1A8F80000A068D2
:10111000B84202DD109818B117B16FF00100A1E7D5
:1011200030469FE72DE9FF4F4FF000089B461446DD
:10113000454683B0D2E90196CDF80080CDF8048011
:101140009169DDF848A00498884707465BEA0A00E1
:1011500005D009E0A16904986D1C88470746216AFB
:10116000384688470028F5D1781C03D05FEAC9705B
:1011700005D01BE04FF0FF3007B0BDE8F08F2068CE
:10118000011D2160D0F8008010E05FEAC97007D12E
:101190006A464046B9B201F0AAF9411C31D08044F8
:1011A000A1696D1C0498761E88470746002E14DD41
:1011B000781C12D0BBF1000007D03B46DDE91012CD
:1011C00001F066F90028E0D107E0BAF1000FDCD1A8
:1011D0003846216A88470028D7D0E16904988847B3
:1011E000BAF1000F06D1002D04DD5FEAC97001D10C
:1011F00088F80000A068B04203DDBAF1000F03D008
:1012000016B16FF00100B7E72846B5E72DE9FF5F9B
:101210009B46144600273D469169D2E90196DDF8C8
:1012200040A00198884780465BEA0A0005D009E0A3
:10123000A16901986D1C88478046216A404688470D
:101240000028F5D1B8F1FF3F03D05FEAC97005D09F
:1012500014E04FF0FF3004B0BDE8F09F2068011D9E
:10126000216007680AE05FEAC97001D127F8028BA4
:10127000A1696D1C0198761E88478046002E15DDF9
:10128000B8F1FF3F12D0BBF1000007D04346DDE9C3
:101290000E1201F0FDF80028E5D107E0BAF1000FC9
:1012A000E1D14046216A88470028DCD0E1690198F5
:1012B0008847BAF1000F05D1002D03DD5FEAC97040
:1012C00000D13880A068B04203DDBAF1000F03D02E
:1012D00016B16FF00100BEE72846BCE710B5203A12
:1012E000C0F00B80B1E81850A0E81850B1E81850D1
:1012F000A0E81850203ABFF4F5AF5FEA027C24BFA3
:10130000B1E81850A0E8185044BF18C918C0BDE88B
:1013100010405FEA827C24BF51F8043B40F8043B54
:1013200008BF7047D20728BF31F8023B48BF11F809
:10133000012B28BF20F8023B48BF00F8012B704763
:1013400000487047AC0A002030B5B0F10A0271F1D4
:1013500000034FEA900E4EEA817EB0EB0E0061EB87
:1013600091014FEA101E4EEA017E10EB0E0041EB98
:1013700011114FEA102E4EEA016E10EB0E0041EBF8
:1013800011214FEA104E4EEA014E10EB0E0041EBD8
:101390001141401841F100014FEAD00040EA41708C
:1013A0004FEAD1014FEA810444EA907410EB8005C2
:1013B00044EB01046D1944EB0404521BA3414FF0AC
:1013C000000348BF0A3200D530BD401C41F1000186
:1013D00030BD10B5044601F0D9F80068005D00F09A
:1013E000010010BD2DE9F0470D469946924604468E
:1013F00000F124080168880604D5E06921F0100195
:10140000216000E00120A84201DD471B00E0002729
:10141000A1697A1902EB0900081AA0612078C006B8
:1014200002D42046FFF74AF9002608E0D4E901215A
:101430001AF806009047206A401C761C20624E4530
:10144000F4DB2078C0060AD52046FFF737F906E01E
:10145000D4E9012130209047206A401C2062381EC8
:10146000A7F10107F4DC07E0D4E9012118F8050031
:101470009047206A401C2062281EA5F10105F3DC7C
:101480002046FFF731F92078000602D50220BDE89A
:10149000F0870120FBE72DE9FF4F0C461E464FF079
:1014A000FF378BB0D2E90001DDF860800A908A46F0
:1014B000C1F30A5505B93D46002108464FF000002A
:1014C000BAF1000F00F4400005DA00EB80004FF4A1
:1014D000400101EA50004FEA9059B9F1010F00DDD7
:1014E000B9460A9850EA4A000ED044F61050A5F2C8
:1014F000FF3545432F14B8F1000F1ED07542291E49
:101500001EDDC9F100021CE0B8F1010F4FF0000030
:1015100001D0302103E0F24305E02154401CB042E9
:10152000FBDB30460022002121540B99C1F80880D2
:10153000C1E900200FB0BDE8F08FBD1B6D1CDEE7D8
:101540004A4600DA694206A801F080F806AB93E843
:10155000070003AB83E8070050460A9919F0EFFE35
:101560008DE80700A0F500501F3800900398002D6B
:101570000ADD42F21F014A460844002303A90390F2
:1015800068461AF09BF909E0A0F500504A461F385A
:10159000002303A9039068461AF0BAF98DE8070002
:1015A0000004000C03D04FF0FF30410800E010466B
:1015B000B8F1000F03D00022009215461EE0751E00
:1015C00005D4FFF7C1FE303262556D1EF9D5B34622
:1015D0000122084302D000227F1C04E0207830283A
:1015E00001D100227F1E002A099784D01DE0112D11
:1015F00007DAFFF7A9FE303262556D1C50EA01028E
:10160000F5D1084302D00098C8B10EE00021681E51
:1016100005E0235C625C63542254401E491C8142F5
:10162000F7DBAB46A81B401E0990002004F80B0016
:101630000B98099AC0F80880C0E9002B7AE71126B8
:101640004FF0000857E72DE9F04F88460446D21DB9
:1016500022F0070191B0D1E90001CDE90A011AF0A9
:10166000A3FA02460B98C00F01D02D2007E0206896
:10167000810701D52B2002E0202101EAC000032AC6
:10168000099001D0072A05DB03464146204600F0B9
:101690009DFF0BE12078800601D5E06900E006207F
:1016A000B8F1650F814606D0B8F1660F18D0B8F1D1
:1016B000670F70D131E00020B9F1110F009001DB0C
:1016C000112301E009F101030AAA01A90CA8FFF7FF
:1016D000E2FEDDE90C70002609F10105834647E0D2
:1016E00001204B4600904FF000470AAA01A90CA820
:1016F000FFF7D1FEDDE90DB00C995D46002610B96B
:1017000009F101000D18B9EB050003D4C0F1FF3653
:1017100009F10105A5EB09002BE0B9F1010F01DA90
:101720004FF001090020B9F1110F0090484601DD8A
:10173000112300E003460AAA01A90CA8FFF7ABFE9B
:10174000DDE90C704D4600268346207800070AD458
:10175000AB4500DA5D4601A8012D04DD411911F801
:10176000011C302907D04F4502DA17F1040F04DAC3
:10177000012082460FE06D1EEEE7002F02DCED1B1C
:101780003E4403E0781CA84200DD7D1CB81B00F13C
:10179000010A4FF000472078000703D4AA4501DB77
:1017A0004FF0FF3A0021B7F1004F0DF143088DF8DB
:1017B000431024D002202B23002F01DA7F422D2357
:1017C0000A21021EA0F1010000DC5FB197FBF1FCD1
:1017D00097FBF1F201FB1C7C17460CF1300C08F86A
:1017E00001CDEEE7A8F1010003702188090501D5BC
:1017F000452100E06521A0F1010800F8011C0998CD
:101800000FA9A1EB0807FF1D00B10120411901EB51
:10181000EA70A1693844081A401EA0612078C00609
:1018200002D42046FEF74AFF099828B1D4E90121E5
:101830009047206A401C20622078C00622D52046AE
:10184000FEF73CFF1EE0002E04DBB34502DD01A8DD
:10185000805D00E03020D4E901219047206A401CDF
:101860002062761CAAF101005FEA000A0AD100F0AA
:1018700095FEC0680168405CD4E901219047206A68
:10188000401C2062281EA5F10105DCDC07E0D4E93C
:10189000012118F8010B9047206A401C2062381E75
:1018A000A7F10107F3DC2046FEF71EFF032011B06D
:1018B00041E600002DE9F04F04460D46D21D22F00E
:1018C000070089B0D0E90097484639461AF06CF90C
:1018D0000246F80F01D02D2307E02068810701D5CB
:1018E0002B2302E0202101EAC0038DF820300BB148
:1018F000012000E00020032A824601D0072A04DBF1
:101900002946204600F062FE3FE12078800601D49F
:101910000D2500E0E569C7F30A560D2D49DA0021CF
:101920004FEA175B08464FF00000002F00F440001C
:1019300007DA00EB80004FF4400100EBD07001EAC1
:1019400060008115012901DD4FF0FF3100224FEACF
:10195000850CBCF1180F06D31346ACF118004FF0FC
:101960008052C24003E04FF4801323FA0CF30CF1D1
:101970000C0CBCF1200F04D3ACF1200C09FA0CF0D4
:1019800001E007FA0CF000294FF0004801DD18B91A
:101990000FE00ED140450CD319EB02095F4121B98C
:1019A000404502D19F4329EA0209BBEB175F00D0F3
:1019B000761C2088000502D57B48784402E07A48EE
:1019C0007844193808AA302302F80A30037C0AF157
:1019D0000101002E0AF1020A53546A4602DC4FF05C
:1019E000300101E04FF031014FF001088DF8001097
:1019F00002D0A6F2FF3603E059EA470100D06B4E51
:101A0000002D02DC2178090704D54FF002082E21B1
:101A10008DF80110C44600210BE0C7F303433F01DA
:101A2000C35C491C6D1E02F80830052908F1010845
:101A300001DA002DF1DC00210CE000EB1973491CE8
:101A40001B786D1E082902F808304FEA091908F1C1
:101A5000010801DA002DF0DC21688B0602D516E0C2
:101A6000A8F10108E04505DD02EB080313F8013C8D
:101A7000302BF5D0B8F1000F09DD02EB080313F8A5
:101A8000013C2E2B03D1090701D4A8F10108002D38
:101A900005DD3E2102F808106D1E08F10108407CAA
:101AA000002E02F8080008F1010804DA2D20764221
:101AB00002F8080002E02B2002F808000A214FF487
:101AC0007A70864208F101080BDB96FBF0F33033A5
:101AD00002F8083096FBF0F308F1010800FB1366EA
:101AE00001E0642E0CDB642096FBF0F3303302F847
:101AF000083096FBF0F308F1010800FB136601E0E3
:101B00000A2E06DB96FBF1F0303002F8080008F1EF
:101B1000010896FBF1F001FB1060303002F808007C
:101B2000A16908F1010808EB050202EB0A00081A96
:101B3000A0612078C00602D42046FEF7BFFD216ACE
:101B400008AE01EB0A00206204E0D4E9012116F896
:101B5000010B9047BAF1010AF7D22078C00602D5EE
:101B60002046FEF7ABFD6E4609E016F8010B3E2855
:101B70000FD0D4E901219047206A401C2062B8F1BF
:101B80000108F2D22046FEF7AFFD09B00320BDE800
:101B9000F08F206A2844206203E0D4E9012130203C
:101BA00090476D1EEBD3F8E7ADCA010002FCFFFFC2
:101BB00010B5436913B1AFF3008001E0FEF7B7FD44
:101BC000012010BD127800F124010A7000224A7031
:101BD0000122EDE711684FF0FF32E9E710B54369E4
:101BE00013B1AFF3008001E0FEF738FE012010BD15
:101BF000128800F1240182840022C2840122EDE7D0
:101C000011684FF0FF32E9E73A2800D2303820F06F
:101C10002002412A01D3A2F13700884201D34FF0BC
:101C2000FF3070472DE9F34F4FF0000A0C4656463F
:101C30008DB001200C9001F10C000B9062690B98A3
:101C400001219047051E2DD0252D2CD0216A8847D3
:101C5000C0B162690B9801219047216A884700282A
:101C6000F7D16269411E0B98904700E0761CA1698C
:101C70000D988847216A88470028F7D1E1690D98B7
:101C80008847DBE7A1690D988847A842074601D13C
:101C9000761CD3E7E1690D9888477F1C02D1BAF121
:101CA000000F6FD06BE162690B9800273D46394603
:101CB00090472A2804D162690B9801219047012599
:101CC000DFF8D08262690B9801219047A0F13001C2
:101CD0000A290AD24745E5DC07EB870100EB4107FB
:101CE000303FDFD445F01005ECE7E90601D46FF092
:101CF00000476C280AD04C2814D0682815D06A28D0
:101D00000DD074281CD07A281AD01DE062690B9877
:101D1000012190476C2802D045F0040514E045F0FD
:101D200002050DE045F020050AE062690B980121EB
:101D30009047682802D045F0080505E045F40065A5
:101D400062690B9801219047C4E9015765283DD08D
:101D500019DC58287AD00CDC452837D004DC25283B
:101D600026D041289ED131E046282FD0472899D14E
:101D70002CE05B2877D0612828D063287CD06428A9
:101D800023D15AE0F6E06F2848D008DC66281DD041
:101D900067281BD0692821D06E2816D127E070282B
:101DA00045D0732868D0752847D078280DD14DE0EC
:101DB000A1690D988847252805463FF469AFE16978
:101DC0000D9888476D1C3FF46AAFD8E00D99234603
:101DD0006A466FF001001CF09CFAC5E045F0400037
:101DE00023464FF000026060A80736D43EE0E807C3
:101DF0007FF447AF2068011D21600068290501D5E7
:101E000006701BE7290701D5068017E7A90703D548
:101E1000F117C0E9006111E706600FE745F04000E7
:101E200023464FF008026060A80716D41EE040F673
:101E30000E0125EA0100606016E045F040002346EF
:101E40004FF00A026060A80707D40FE045F0400099
:101E50006060A80708D5234610220D996FF0010095
:101E6000FEF7DEFE80E007E0102223460D996FF0BA
:101E70000100FEF780FF77E04FF0000963284F462E
:101E8000C8464B46CB4602D05B2806D038E0E80671
:101E900001D40120A060012732E06269D4F80CB0BF
:101EA0000B98012190475E2807D14FF00109494660
:101EB0006269D4F80CB00B989047216939B90021B8
:101EC0000A4603AB43F82120491C0829FADBD8B3A2
:101ED000216949B308F1010862690B980121904713
:101EE0005D28F4D1B9F1000F09D0002003A951F801
:101EF0002020D24341F82020401C0828F7DB03AB08
:101F00002069002820794FEA40701ED05B462246A7
:101F1000CDF80080CDE901970D9900286FF0010000
:101F200020DAFFF773F91FE0C11703AA00EBD161B4
:101F30004B1121F01F0102EB8302411A13680120AB
:101F4000884003431360C7E719E00D992246002833
:101F50006FF00100009702DAFFF75AF804E0FEF78D
:101F6000B0FF01E0FFF7DEF800280ADA401C06D1D6
:101F70000C9820B14FF0FF300FB0BDE8F08F504605
:101F8000FAE7E90701D10AF1010A064400200C90A2
:101F900054E60000CCCCCC0C2DE9FF4F06468BB0AC
:101FA0000878FF2806D0491C2D2805D000244FF0C2
:101FB000000908E000200CE00124F8E709EB8903A0
:101FC000491C00EB43090878FF28F7D114B1C9F187
:101FD00000008146107800252C46AA4629462D2867
:101FE00001D02B2804D1521C2D2813D0002082466A
:101FF0008B461078FF280FD04FF0000C0A21521C9E
:10200000A5FB017804FB018105FB0C11C5194BEB05
:102010000104EEE70120EAE7002108464FF0000046
:10202000BAF1000F02D000EB80004008C0F38157E6
:10203000012F01DD4FF0FF370E9955EA040009EB3F
:1020400001080BD04FF0020918F5FA7F16DA4FEAB3
:10205000CA70002F706008DD012007E04FEACA70E7
:10206000C6E900B00FB0BDE8F08F00203060FFF788
:1020700067F9C0F800901821084616E0B8F5FA7F15
:1020800018DD002F02DAF748784401E0F64878447A
:10209000D0E90010C6E9001040EACA707060FFF78E
:1020A0004FF9C0F80090142108460FB0BDE8F04F7A
:1020B0001CF0C8B8002108464FF00000B8F100013C
:1020C000099002DAC7F1000200E03A4601DAC8F1ED
:1020D000000106A800F0BAFA06AB93E8070003ABCC
:1020E00083E8070044F23E005BEA04010090584692
:1020F00004D144F21E012C465D460091210C0904D6
:10210000014306D10099240444EA15442D041039F2
:10211000009104F07F41014306D10099240244EA72
:1021200015642D020839009104F07041014306D175
:102130000099240144EA15742D01091F009104F04F
:102140004041014306D10099A40044EA9574AD00D2
:10215000891E009104F00041084304D100986D19D4
:102160006441401E00904FF001033A466846B8F1C2
:10217000000FCDE9014503A902DD19F0DEFB01E006
:1021800019F0B1FBBAF1000F04460D4601D084F0FE
:102190000044002108464FF00000099940F2FF7703
:1021A000484010F00C0F07D124F00040284303D022
:1021B000C4F30A50B84212D1FFF7C2F8C0F8009039
:1021C000C4F30A50B8420AD1A8487844D0E90010B4
:1021D000C6E9001004F000410843706042E7C6E918
:1021E00000543FE72DE9FF4F1F464FF0000A4FF024
:1021F000FF38454691B0D7E90146CDF83CA000F044
:10220000CDF9C0680168405C1090B96912986D1CE6
:102210008847396A814688470028F6D1B9F1FF3FDF
:102220000AD0002E24F4D06411DDB9F12B0F08D0B0
:10223000B9F12D0F0BD102E0404615B013E744F47D
:102240008064B96912986D1C8847761E81466005C6
:1022500004A901D52D2000E02B20002E01F1010B57
:102260000DF130088DF810003FDDB9F1690F08D08D
:10227000B9F1490F05D0B9F16E0F02D0B9F14E0F87
:102280001CD13B4601A8009580E85002DDE91212FE
:102290006FF002001CF041F8C11CCED10EE0B9690C
:1022A00012986D1C884781461398761E44F400747A
:1022B00005600F98401C002E0F9016DDB9F1300F0D
:1022C000EDD0B9F1780F02D0B9F1580F0DD10F98B8
:1022D00001280AD13B46CDE90054DDE91212001F66
:1022E00002961CF018F8C11CA7D1109989453ED15F
:1022F00044F0800406E01399681CAAF1010A44F432
:1023000000740860B9696D1C1298761E88473028E1
:102310008146F0D02BE01099894505D1200603D4E1
:10232000761E44F0800418E048461AF06DFF08B3AA
:10233000761E0DF123029345A9F1300044F4007498
:1023400006D20BF8010B200607D5AAF1010003E025
:10235000200602D40AF101008246A00502D5139995
:10236000681C0860B96912986D1C88478146002E68
:10237000D1DC53E0002E51DDB9F1650F02D0B9F187
:10238000450F4BD1A00549D5B9696D1C1298761E31
:1023900024F440748847002E81460CDD2B2804D09D
:1023A000B9F12D0F07D144F48074B96912986D1CEE
:1023B0008847761E8146E00501D52D2100E02B21BE
:1023C00008F8011BCDF8008021E0761E0DF13901DF
:1023D000884544F400740CD2A9F1300010F0FF00DD
:1023E00088F8000002D10099884509D908F1010850
:1023F00006E0E00501D51E4801E042F20F7082467A
:10240000B96912986D1C8847814613980560002EA3
:1024100004DD48461AF0F8FE0028D6D1F969129872
:102420008847FF2053468BF8000088F80000002002
:102430000A900B9004AA0CA90AA8FFF7ADFDA0050D
:1024400002D46FF00100F8E614F0240F12D0E00778
:102450001CD13868DDE90A12031D3B600068C0E941
:10246000001213E090C7010082C7010046C60100B8
:10247000F1D8FFFF0AA968461AF008FEE00705D167
:102480003868009A011D3960006802602846D4E669
:1024900010B508E030F8024B9C4204D10AB100208C
:1024A00010BD012010BD491EF4D2104610BDF8B574
:1024B00016460C46054600F069F8036893F80101DA
:1024C000012804D0185D78B101202C80F8BDD3F824
:1024D00003013246214603F20313C718684600235E
:1024E000B84700992980F8BD4FF0FF30F8BD2DE9BD
:1024F000F04116460C46054600F048F8036893F88C
:102500000101012807D0FF2C12D8185D80B10120ED
:102510002C70BDE8F081D3F807013246214603F262
:102520000713C7182846BC46BDE8F04100236047A2
:102530004FF0FF30EDE7000000487047AC0A002084
:102540007546FFF7F9FFAE4605006946534620F091
:102550000700854618B020B5FDF728FFBDE82040EC
:102560004FF000064FF000074FF000084FF0000B4F
:10257000AC46ACE8C009ACE8C009ACE8C009ACE8BE
:10258000C00921F007018D467047000010B500F02A
:1025900005F8001D10BD00BF95AE01000048704752
:1025A000CC0A0020B2F120030AD5C2F1200301FABF
:1025B00002F120FA03F341EA030100FA02F0704746
:1025C00000FA03F14FF00000704700002DE9F041E0
:1025D0001F46044603260168072A01F4006004DB55
:1025E00008B116A505E016A503E008B115A500E0A1
:1025F00015A521F010002060A069C01EA0610FB1D8
:10260000401EA0612046FEF759F84FB1D4E90121E0
:1026100038469047206A401C2062C01C206206E0B9
:10262000206AFAE7D4E9012115F8010B9047761EDC
:10263000F8D22046FEF758F8BDE8F0814E414E0032
:102640006E616E00494E4600696E66002DE9F047E6
:10265000814616468AB0354878440DC88DE80D008D
:1026600032487844801C03AC0DC884E80D0041F664
:102670009B300844372190FBF1F290FBF1F5A5F176
:10268000800501FB12041B3C02D56442012000E0DE
:102690000020DFF898A080460027FA44AAF1BE0A7D
:1026A0000EE0E0070AD03246684607EB47010123F7
:1026B0000AEB810119F02CF98DE8070064107F1CEA
:1026C000002CEED1194F7F44AE3F19E0E80715D03A
:1026D00007EB04100DF1180A90E80E008AE80E00CE
:1026E000C068F04201D1981908903246012306A92A
:1026F00003A819F00DF903AB83E807006D10641C03
:10270000002DE3D14FF0010332466946B8F1000FC6
:1027100003A802D019F0D2F801E019F0F9F8C9E9DC
:102720000001C9F808200AB0BDE8F087A0BE01008A
:1027300010B50446AFF300802046BDE81040FDF719
:1027400020BE00002DE9FF4F1F464FF03C0987B027
:102750004FF00042DDE9141001F10108DDF858A046
:1027600002EA405003900020059083460546044647
:102770000490B969461E08988847AAF1010A029098
:10278000BAF1000F3BDD02982E2815D01021FFF77B
:102790003BFA00282EDB4FF0010B0599014317D0BF
:1027A000B9F1000F0BDB4A46C117FFF7FBFE0543EB
:1027B0000C43A9F1040905E0012004900BE008B1E5
:1027C00045F0010501200590049820B9361D02E06E
:1027D000049800B1361FB969089808F101088847C4
:1027E000BBF1000FAAF1010A0290C9D00999C1F802
:1027F0000080C5E70298702808D0502806D0F969F3
:1028000008988847BBF1000F14D04FE000200290D9
:102810000120BBF1000F049009D0B969089808F1B4
:1028200001088847AAF10109B9F1000F07DCF9692D
:10283000089888476FF001000BB0BDE8F08F2B2897
:1028400004D02D280CD14FF0FF300490B9690898BE
:1028500008F101088847A9F10109B9F1000FE6DD87
:10286000411CE4D00A21FFF7CFF90028DFDB0299F1
:1028700008F1010801EB810100EB41000290B96908
:10288000089888470A21FFF7BFF9099AA9F10109B9
:10289000B9F1000FC2F8008001DD0028E7DAF9691C
:1028A000089888470499029800FB016655EA0400DD
:1028B00004D004F04041090002D006E0039898E0FB
:1028C000A40044EA9574AD00B61E04F0004108006F
:1028D00002D16D196441761E159810F0240F03D0B3
:1028E0004FF00B095C4803E04FF028096FF07D00C2
:1028F0008246564507DAAAEB06018944B9F1410F31
:1029000001DD4FF0410901200021A9F10102FFF78B
:1029100049FE024628400B462140084301D00121D0
:1029200000E00021501E029143F1FF312840214078
:10293000084301D0012000E000200299834651EABB
:102940000B014FD0002108464FF00000039900F41E
:10295000400039B100EB80004FF4400100EBD07033
:1029600001EA60008015012802DD4FF0FF3000E031
:1029700013D0401C36D0029860B3BBF1000F0CD1CD
:102980004A4601200021FFF70DFE28402140084360
:1029900001D0012000E00020E0B101204A460021E2
:1029A000FFF700FE034640190A4661412D1A8C418B
:1029B00011D3B9F1400F09DD159810F0240F02D0A2
:1029C000AAF1340603E0AAF1170600E0761C002500
:1029D0004FF0004406E05B1E42F1FF3220EA03059F
:1029E00021EA0204CAF10100B04206DA1B49039849
:1029F00008430190002000900EE0039AC4F3D32115
:102A0000E80A0A43164940EA44500A433146CDE9F0
:102A1000000268461AF0EEFB159810F0240F0BD058
:102A20001598C00715D13868DDE90012031D3B6019
:102A30000068C0E900120CE002A869461AF026FB03
:102A40001598C00705D13868029A011D39600068E1
:102A500002604046F0E6000002FCFFFF0000F07F4D
:102A60000000F03F2DE9FF4F92461D4685B04FF024
:102A70000041DDE9124BDDE914727F1E01EA4B5083
:102A8000414940F0FF4940EA0108002122F02000BE
:102A90004928049102D04E2828D04CE03BA00126C2
:102AA00007C88DE80700A9690698641C88477F1E3F
:102AB000014606D41DF8060018B121F0200181421C
:102AC0000BD0E96906988847032E34D0082E32D0FF
:102AD0006FF0010009B0BDE8F08F761C032E01D025
:102AE000082EE0D1601CCAF80000DCE7A96906984E
:102AF000641C88477F1E2AD420F02000412826D15C
:102B0000A9690698641C88477F1E20D420F0200005
:102B10004E281CD1A9690698641C88477F1E48F47A
:102B2000002849F48009CAF8004001D4282806D0BA
:102B3000E969069888475FEACB7012D022E0A9695C
:102B40000698641C88477F1E01D4002803DAE969CF
:102B500006988847BCE72928F1D1641CCAF80040D0
:102B6000E9E71BF0240F07D028680499031D2B60A8
:102B70000068C0E9001805E02868021D2A600068A6
:102B8000C0F800902046A5E70000F07F494E464976
:102B90004E4954590000000030B44FF0013C50F849
:102BA000042B51F8043BCCFA52F4D51A20D1FCB9CD
:102BB00050F8042B51F8043BCCFA52F4D51A17D133
:102BC000B4B950F8042B51F8043BCCFA52F4D51A9E
:102BD0000ED16CB950F8042B51F8043BCCFA52F4E6
:102BE000D51A05D1002CDAD030BC4FF00000704768
:102BF00029BAB1FA81F111F01801D1F12000844015
:102C0000F2D1CA40CB4012F0FF0213F0FF0330BCF8
:102C1000D01A704701491820ABBEFEE7260002001B
:102C20007047000080B501F045FC80BD80B582B0E2
:102C30000020019040F62050C2F200000068D8B198
:102C4000FFE740F62051C2F2000108680138086031
:102C500088B9FFE741F67C60C2F20000009005F001
:102C6000BBFF009801F0E4FC20B1FFE76FF0070024
:102C70000190FFE7FFE7FFE7019802B080BD000089
:102C800080B582B00020019041F67C61C2F2000163
:102C900045F20040C4F20000086040F62052C2F243
:102CA00000021068411C116088BBFFE741F67C60A0
:102CB000C2F2000001F00AFD40BBFFE741F67C6074
:102CC000C2F2000005F0A6FF0198F0B9FFE741F657
:102CD0007C60C2F2000008F0F5FC20B1FFE76FF065
:102CE0000700019010E041F67C60C2F20000002174
:102CF00001F0E6FB20B1FFE76FF00700019002E072
:102D000000200190FFE7FFE7FFE7FFE7FFE70198FB
:102D100002B080BD80B588B0ADF81E00ADF81C10C3
:102D20000692ADF8163000200490BDF81E10BDF8D4
:102D30001C200698BDF816C06B464FF4805EC3F8A1
:102D400008E0C3F804C0186041F67C60C2F20000DD
:102D5000012301F04DFD90B1FFE741F67C60C2F226
:102D6000000001F0ADFC042804D1FFE76FF065001E
:102D7000049003E06FF003000490FFE7FFE704987E
:102D800008B080BD80B588B0ADF81E00ADF81C104D
:102D90000692ADF8163000200490BDF81E10BDF864
:102DA0001C200698BDF816C06B464FF4805EC3F831
:102DB00008E0C3F804C0186041F67C60C2F200006D
:102DC000012301F05BFE90B1FFE741F67C60C2F2A7
:102DD000000001F075FC042804D1FFE76FF06500E6
:102DE000049003E06FF003000490FFE7FFE704980E
:102DF00008B080BDFFE7FEE784B08DF80F000291B8
:102E0000ADF806209DF80F000146009123281DD83B
:102E10000099DFE801F012131415161B1B1B1B1B76
:102E20001B1B1B1B1B1B1B1B1B1B1B1B1B1B1B1BF2
:102E30001B1B1B1B1B1B1718191A08E007E006E0D9
:102E400005E004E003E002E001E000E0FFE700202D
:102E500004B070470020704780B582B041F68830DA
:102E6000C2F20000009041F27871C2F2000100222B
:102E700001920CF0CFFC009841F27831C2F20001CF
:102E80000CF0AEFC019802B080BD000080B584B0AB
:102E9000039002910398029909680AF09FFB40F69B
:102EA0000E31C2F200010870039941F68830C2F277
:102EB000000001900CF094FC01980CF03BFC002009
:102EC00004B080BD83B0029001918DF803200020F2
:102ED0008DF802009DF9020003B0704780B586B0FE
:102EE0000490ADF80E1000208DF80D0041F68830EA
:102EF000C2F20000D0F8BC0202900298D0F814028E
:102F000020B1FFE701208DF8170013E00499BDF808
:102F10000E2041F68830C2F2000001900CF07AFCDD
:102F200001980CF065FD8DF80D009DF80D008DF8F1
:102F30001700FFE79DF8170006B080BD80B5C6B04A
:102F400018F076F940F22400C2F200002B9090EDC8
:102F5000020ABDEEC00A10EE100A0FF039FD2B98E0
:102F6000007801280CD0FFE740F22400C2F20000F4
:102F700090ED020AB5EE400AF1EE10FA01D1FFE73A
:102F8000E2E34FF07E5045904FF07C50449040F289
:102F90002400C2F200002A900169439141684291E5
:102FA000C1684191406940909DED420A9DED411AF2
:102FB00030EE010A40F63050C2F2000090ED001AE7
:102FC00030EE010A8DED3F0A9DED420A9DED411A5A
:102FD00030EE410A90ED001A30EE410A8DED3E0AC6
:102FE0009DED3F0ADFED2F0ACDED280A9FED2E1A49
:102FF0008DED291A10F0D6F8DDED280A9DED291A7D
:103000008DED3F0A9DED3E0A10F0CCF88DED3E0AA5
:103010009DED3F0A3DA83CA918F026F89DED3E0A1B
:103020003BA83AA918F020F89DED400A39A838A924
:1030300018F048F89DED400A37A836A918F042F874
:103040002A9890ED020A9FED191A80EE011A40F6B7
:103050004430C2F2000090ED000A30EE010A80ED2B
:10306000000A90ED000AB7EE001AB4EE410AF1EE44
:1030700010FA07DBFFE740F64431C2F200010020FE
:103080000860FFE740F64430C2F2000090ED000A0D
:10309000B6EE001AB4EE410AF1EE10FA00F3AC817C
:1030A00008E000BF00008CC200008C420000C84253
:1030B000DB0FC94040F64430C2F2000090ED000A38
:1030C0001FED051A8DED251A20EE010A30EE000ADB
:1030D0008DED350A9DED430A8DED150A9DED350AFE
:1030E00019F07EFBB0EE402A9DED150AB7EE001AEE
:1030F00031EE421A20EE010AB6EE001A20EE010A65
:103100008DED340A9DED380A9DED391A30EE410AF5
:103110008DED170A9DED350A8DED160A19F04AFD61
:103120009DED162A9DED251AB0EE403A9DED170A49
:1031300032EE432A20EE020A80EE010A9DED391A92
:1031400030EE010A8DED2F0A9DED390A9DED381AFA
:1031500030EE410A8DED190A9DED350A8DED180A04
:1031600019F028FD9DED182A9DED251AB0EE403A84
:103170009DED190A32EE432A20EE020A80EE010A82
:103180009DED381A30EE010A8DED2E0A9DED360ABE
:103190009DED371A30EE410A8DED1B0A9DED350A83
:1031A0008DED1A0A19F006FD9DED1A2A9DED251ADE
:1031B000B0EE403A9DED1B0A32EE432A20EE020AA1
:1031C00080EE010A9DED371A30EE010A8DED2D0AD1
:1031D0009DED370A9DED361A30EE410A8DED1D0A40
:1031E0009DED350A8DED1C0A19F0E4FC9DED1C2ABD
:1031F0009DED251AB0EE403A9DED1D0A32EE432AB0
:1032000020EE020A80EE010A9DED361A30EE010A28
:103210008DED2C0A9DED3C0A9DED3D1A30EE410AE4
:103220008DED1F0A9DED350A8DED1E0A19F0C2FCC9
:103230009DED1E2A9DED251AB0EE403A9DED1F0A28
:1032400032EE432A20EE020A80EE010A9DED3D1A7D
:1032500030EE010A8DED330A9DED3D0A9DED3C1ADD
:1032600030EE410A8DED210A9DED350A8DED200AE3
:1032700019F0A0FC9DED202A9DED251AB0EE403AF4
:103280009DED210A32EE432A20EE020A80EE010A69
:103290009DED3C1A30EE010A8DED320A9DED3A0AA1
:1032A0009DED3B1A30EE410A8DED230A9DED350A66
:1032B0008DED220A19F07EFC9DED222A9DED251A46
:1032C000B0EE403A9DED230A32EE432A20EE020A88
:1032D00080EE010A9DED3B1A30EE010A8DED310AB8
:1032E0009DED3B0A9DED3A1A30EE410A8DED260A1E
:1032F0009DED350A8DED240A19F05CFC9DED242A24
:103300009DED251AB0EE403A9DED260A32EE432A95
:1033100020EE020A80EE010A9DED3A1A30EE010A13
:103320008DED300A42F68460C2F2000090ED000A92
:103330009DED301A30EE410A40F64831C2F20001EC
:10334000279181ED000A90ED010A9DED2D1A30EED6
:10335000410A81ED010A90ED020A9DED341A30EE2A
:10336000410A81ED020A42F2A440C2F2000090ED4F
:10337000000A9DED321A30EE410A81ED090A90ED06
:10338000010A9DED2E1A30EE410A81ED0A0A90EDF8
:10339000020A9DED341A30EE410A81ED0B0A42F229
:1033A000B040C2F2000090ED000A9DED331A30EEFD
:1033B000410A81ED030A90ED010A9DED2F1A30EECE
:1033C000410A81ED040A8068486142F67860C2F2E1
:1033D000000090ED000A9DED311A30EE410A81EDBA
:1033E000060A90ED010A9DED2C1A30EE410A81ED9E
:1033F000070A80680862A7E140F64430C2F2000084
:1034000090ED000AB6EE001A8DED011A30EE410A79
:103410009FEDCE1A8DED121A20EE010A30EE000A51
:103420008DED350A9DED430A8DED020A9DED350ABD
:1034300019F0D6F99DED011AB0EE403A9DED020A61
:10344000B7EE002A32EE432A20EE020A20EE010AED
:103450008DED340A9DED380A9DED391A30EE410AA2
:103460008DED040A9DED350A8DED030A19F0A2FBDE
:103470009DED032A9DED121AB0EE403A9DED040A2F
:1034800032EE432A20EE020A80EE010A9DED391A3F
:1034900030EE010A8DED2F0A9DED390A9DED381AA7
:1034A00030EE410A8DED060A9DED350A8DED050AD7
:1034B00019F080FB9DED052A9DED121AB0EE403A01
:1034C0009DED060A32EE432A20EE020A80EE010A42
:1034D0009DED381A30EE010A8DED2E0A9DED360A6B
:1034E0009DED371A30EE410A8DED080A9DED350A43
:1034F0008DED070A19F05EFB9DED072A9DED121A6E
:10350000B0EE403A9DED080A32EE432A20EE020A60
:1035100080EE010A9DED371A30EE010A8DED2D0A7D
:103520009DED370A9DED361A30EE410A8DED0A0AFF
:103530009DED350A8DED090A19F03CFB9DED092A38
:103540009DED121AB0EE403A9DED0A0A32EE432A82
:1035500020EE020A80EE010A9DED361A30EE010AD5
:103560008DED2C0A9DED3C0A9DED3D1A30EE410A91
:103570008DED0C0A9DED350A8DED0B0A19F01AFB45
:103580009DED0B2A9DED121AB0EE403A9DED0C0A0E
:1035900032EE432A20EE020A80EE010A9DED3D1A2A
:1035A00030EE010A8DED330A9DED3D0A9DED3C1A8A
:1035B00030EE410A8DED0E0A9DED350A8DED0D0AB6
:1035C00019F0F8FA9DED0D2A9DED121AB0EE403A71
:1035D0009DED0E0A32EE432A20EE020A80EE010A29
:1035E0009DED3C1A30EE010A8DED320A9DED3A0A4E
:1035F0009DED3B1A30EE410A8DED100A9DED350A26
:103600008DED0F0A19F0D6FA9DED0F2A9DED121AD5
:10361000B0EE403A9DED100A32EE432A20EE020A47
:1036200080EE010A9DED3B1A30EE010A8DED310A64
:103630009DED3B0A9DED3A1A30EE410A8DED130ADD
:103640009DED350A8DED110A19F0B4FA9DED112AA0
:103650009DED121AB0EE403A9DED130A32EE432A68
:1036600020EE020A80EE010A9DED3A1A30EE010AC0
:103670008DED300A42F68461C2F2000191ED000A3C
:103680009DED311A30EE410A40F64830C2F200009A
:10369000149080ED000A91ED010A9DED2E1A30EE96
:1036A000410A80ED010A8968816042F2A441C2F2B8
:1036B000000191ED000A9DED331A30EE410A80EDD4
:1036C000090A91ED010A9DED2D1A30EE410A80EDB7
:1036D0000A0A8968C16242F2B041C2F2000191ED6A
:1036E000000A9DED321A30EE410A80ED030A91ED99
:1036F000010A9DED2C1A30EE410A80ED040A91ED8D
:10370000020A9DED341A30EE410A80ED050A42F6B8
:103710007861C2F2000191ED000A9DED301A30EEA1
:10372000410A80ED060A91ED010A9DED2F1A30EE57
:10373000410A80ED070A91ED020A9DED341A30EE40
:10374000410A80ED080AFFE746B080BDDB0FC940A3
:103750002DE9F041099C069F207008686060486868
:10376000A0608868E060C868206108696061486995
:10377000A0618869E061C8692062096A6162DDE967
:1037800007651188D2ED017A2185803204F1300875
:103790004FF0000EA2F17801404651F804CB40F8FA
:1037A00004CB9142F9D10EF11E0EBEF15A0F08F171
:1037B000780801F17802EDD1C4ED0B7A1A88D3F8BC
:1037C0000480A4F89821803304F5D07E4FF0000CDB
:1037D000A3F17802714652F8040B41F8040B9A42A7
:1037E000F9D10CF11E0CBCF15A0F0EF1780E02F15A
:1037F0007803EDD1C4F89C813B88D7F804E0A4F8A5
:10380000083307F1800004F5447C0027A0F1780319
:10381000624653F8041B42F8041B9842F9D11E3744
:103820005A2F0CF1780C00F17800EFD1C4F80CE3BA
:103830003388D6F804C0A4F8783406F1800004F583
:1038400090670026A0F178033A4653F8041B42F82B
:10385000041B9842F9D11E365A2E07F1780700F161
:103860007800EFD104F58F63AA69C3F804C004F5AA
:10387000BD63297884F8E8159A616A685A60AA6875
:103880009A60EA68DA602A691A616A695A61EA69C3
:10389000DA612A6A1A626A6A5A62AA6A9A62EA6AE9
:1038A000DA62BDE8F08100BF7047000082B001908D
:1038B00042F65870C2F2000000680090FFE742F63E
:1038C0005870C2F2000000680099401A01998842BD
:1038D00001D2FFE7F3E702B07047000080B588B07F
:1038E00040F22400C2F200000790007800EE100AB7
:1038F000B8EE400ADFED4E0ACDED000AB7EE001A31
:103900000FF050FC0798BDEEC00A10EE101A0170BF
:1039100090ED010ADFED470ACDED010A9FED461A51
:103920008DED021A0FF03EFCDDED000A079880EDE8
:10393000010A90ED020AB1EE041A0FF033FCDDED3E
:10394000010A9DED021A0798BDEEC00A10EE101A8A
:1039500000EE101AB8EE400A80ED020A90ED030A5C
:103960000FF020FC079880ED030A90ED040AF2EEB8
:10397000040A9FED321A8DED061A0FF013FC07981A
:1039800080ED040A90ED050ADFED2D0A9FED2D1A5A
:103990000FF008FC079880ED050A90ED060AFBEE93
:1039A000090AB3EE091A0FF0FDFB079880ED060A2D
:1039B00090ED070AFBEE040ACDED030AB3EE041AFC
:1039C0008DED041A0FF0EEFBDDED030A9DED041AF8
:1039D000079880ED070A90ED080A0FF0E3FB9DEDD4
:1039E000061A079880ED080A90ED090ADFED160A1D
:1039F000CDED050A0FF0D6FBDDED050A9DED061AAB
:103A0000079880ED090A90ED0A0A0FF0CBFB0798A2
:103A100080ED0A0A90ED0B0ADFED0C0A9FED0C1AFF
:103A20000FF0C0FB079880ED0B0A08B080BD00BF07
:103A30000000000000008CC200008C4200004842E0
:103A4000000070C200007042000048C20000204226
:103A500000003E4380B586B04EF27453C0F60103B9
:103A6000186859689A68DB6805930492039102907C
:103A700000200190FFE70198032823DCFFE7019B6A
:103A800002A850F8230090ED000AD0ED010A90ED55
:103A9000021A41F6D060C2F2000000EB430042F689
:103AA0005C71C2F2000101EB430142F29C42C2F29E
:103AB000000202EB430217F0CBF9FFE70198013057
:103AC0000190D8E709F002FC09F048FB06B080BD80
:103AD00080B5042000F008FB80BD000081B0EFF34A
:103AE000108072B60090FFE7FEE7000080B584B05A
:103AF00047F29050C1F6FF700068039047F294506F
:103B0000C1F6FF700068029047F29850C1F6FF704E
:103B1000006801900199039808440390039888B1C4
:103B2000FFE7039840F29411C2F2000100910231C4
:103B3000082205F0EFFB009902981231042205F0EB
:103B4000E9FBFFE704B080BD87B0069005910492C1
:103B500000208DF80F001F2002909DF81400C00770
:103B600020B9FFE701208DF80F004BE0FFE7029935
:103B7000481E02900020019051B1FFE7059802997C
:103B800001F01F0120FA01F1012088430190FFE7B5
:103B90000198C00708B1FFE7E9E7049800901828EA
:103BA0002BD80099DFE801F028292929292929297A
:103BB0001F29292929292929162929292929292992
:103BC0000D000298072804D3FFE701208DF80F00AD
:103BD000FFE716E00298082804D3FFE701208DF8DC
:103BE0000F00FFE70DE00298102804D3FFE7012043
:103BF0008DF80F00FFE704E003E001208DF80F00CF
:103C0000FFE7FFE79DF80F0078B9FFE705980699F1
:103C10000968486106980068806820F018000499D7
:103C20000843069909688860FFE79DF80F0007B010
:103C30007047000080B582B00090009820B9FFE77F
:103C400001208DF8070057E00098407F38B9FFE762
:103C5000009900200877009800F052F8FFE70099DB
:103C6000022048770098007980B9FFE70098016842
:103C700041F6B750C0F2C1404861009800688068C2
:103C800020F018000099096888600BE000988168AE
:103C9000C268FFF759FF20B1FFE701208DF8070048
:103CA0002AE0FFE70098407930B9FFE70098016803
:103CB0004FF0FF30086104E0009801680069086176
:103CC000FFE700980068806820F06000009A1168A3
:103CD00052691043886000980068806820F0800076
:103CE000009A116892691043886000990120487712
:103CF00000208DF80700FFE79DF8070002B080BDA7
:103D000082B001900198006843F20001C4F2020100
:103D1000884210D1FFE7FFE741F24800C4F20200F9
:103D2000016841F480510160006800F48050009007
:103D30000098FFE7FFE702B07047000082B00190F3
:103D400000208DF80300019890F82500022807D084
:103D5000FFE701990420C86301208DF803002DE0DE
:103D600001980168086820F00E0008600198816CD5
:103D7000086820F48070086001980168086820F0E5
:103D8000010008600198016C406C00F01F020120E6
:103D9000904048600198C16C006D48600198406D8A
:103DA00058B1FFE70198416D086820F48070086001
:103DB0000198816DC06D4860FFE7FFE70199012020
:103DC00081F82500FFE70199002081F82400FFE732
:103DD0009DF8030002B0704780B582B001900020CA
:103DE0008DF80300019890F82500022811D0FFE714
:103DF00001990420C8630199012081F82500FFE79B
:103E00000199002081F82400FFE701208DF80300CC
:103E10003FE001980168086820F00E0008600198F2
:103E20000168086820F0010008600198816C08684A
:103E300020F4807008600198016C406C00F01F0253
:103E40000120904048600198C16C006D4860019865
:103E5000406D58B1FFE70198416D086820F480700B
:103E600008600198816DC06D4860FFE701990120ED
:103E700081F82500FFE70199002081F82400FFE781
:103E80000198806B20B1FFE70198816B8847FFE7BD
:103E9000FFE79DF8030002B080BD000080B584B04C
:103EA000039000F007FB0290039801900198013005
:103EB00048B1FFE740F24820C2F2000001680198D3
:103EC00008440190FFE7FFE700F0F4FA0299401A76
:103ED0000199884201D2FFE7F6E704B080BD0000F7
:103EE0008BB00A90099100200890FFE70998089983
:103EF000C840002800F0DE80FFE70998089A0121F9
:103F00009140084007900798002800F0CF80FFE715
:103F1000089820F003000821C4F2010140580690DF
:103F2000089800F0030081000F2000FA01F10698C4
:103F300008400690069805900A98B0F1904F03D17A
:103F4000FFE70020049042E00A9840F20041C4F6E6
:103F50000001884203D1FFE70120039034E00A9872
:103F600040F60001C4F60001884203D1FFE70220B9
:103F7000029026E00A9840F60041C4F6000188420B
:103F800003D1FFE70320019018E00A9841F20001F5
:103F9000C4F60001884203D1FFE7042000900AE044
:103FA0000A9941F20042C4F600020620914208BF7D
:103FB00005200090FFE700980190FFE7019802902C
:103FC000FFE702980390FFE703980490FFE7059846
:103FD0000499089A02F0030292009140884232D17B
:103FE000FFE7079A40F20041C4F2010108689043DC
:103FF0000860079A40F20441C4F201010868904346
:104000000860079A40F20C41C4F20101086890432D
:104010000860079A40F20841C4F201010868904321
:104020000860089800F0030081000F208840069087
:10403000069B089820F003010822C4F20102885868
:1040400098438850FFE708984100032000FA01F3E5
:104050000A9A116819431160DDF820C00CF00701BD
:104060008A000F2101FA02F30A996FF0030202EAB3
:104070005C020A44116A994311620899490000FAE6
:1040800001F30A9AD1689943D160089A012101FA93
:1040900002F30A9A5168994351600899490000FA5D
:1040A00001F20A99886890438860FFE70898013018
:1040B00008901BE70BB0704780B582B0ADF80600E2
:1040C000BDF8060004280CD1FFE740F67830C2F2B4
:1040D000000005F0C3FF40F61C51C2F20001087059
:1040E000FFE702B080BD000080B582B0ADF80600E9
:1040F00040F21440C4F201000068BDF80610084206
:104100000CD0FFE7BDF8060040F21441C4F20101F3
:104110000860BDF80600FFF7CFFFFFE702B080BDE3
:104120008BB00A90099100200890FFE70998006879
:104130000899C840002800F0A581FFE709980068A9
:10414000089A01219140084007900798002800F044
:104150009581FFE70998406800F00300012807D027
:10416000FFE70998406800F0030002282FD1FFE71D
:104170000A988068069008984100032000FA01F12F
:104180000698884306900998C0680899490000FA83
:1041900001F106980843069006980A9988600A98E3
:1041A000406806900899012000FA01F106988843BA
:1041B000069009984068C0F30010089900FA01F1D0
:1041C00006980843069006980A994860FFE7099800
:1041D000406800F00300032818D0FFE70A98C06881
:1041E000069008984100032000FA01F106988843E0
:1041F0000690099880680899490000FA01F106982C
:104200000843069006980A99C860FFE70998406835
:1042100000F00300022826D1FFE70A9808996FF002
:10422000030202EA51010844006A0690089800F06F
:10423000070081000F2000FA01F1069888430690DC
:1042400009980069089901F00701890000FA01F155
:1042500006980843069006980A99089B02EA5302BA
:1042600011440862FFE70A98006806900898410028
:10427000032000FA01F106988843069009984068E7
:1042800000F003000899490000FA01F1069808437C
:10429000069006980A990860099880798007002896
:1042A00000F0EB80FFE7FFE741F26000C4F202009C
:1042B000016841F001010160006800F00100059013
:1042C0000598FFE7089820F003000821C4F20101D7
:1042D00040580690089800F0030081000F2000FA73
:1042E00001F10698884306900A98B0F1904F03D1E7
:1042F000FFE70020049042E00A9840F20041C4F633
:104300000001884203D1FFE70120039034E00A98BE
:1043100040F60001C4F60001884203D1FFE7022005
:10432000029026E00A9840F60041C4F60001884257
:1043300003D1FFE70320019018E00A9841F2000141
:10434000C4F60001884203D1FFE7042000900AE090
:104350000A9941F20042C4F600020620914208BFC9
:1043600005200090FFE700980190FFE70198029078
:10437000FFE702980390FFE703980490FFE7049893
:10438000089901F00301890000FA01F10698084339
:1043900006900698089921F003010822C4F2010250
:1043A000885040F20840C4F2010000680690079966
:1043B00006988843069009988079C006002805D59C
:1043C000FFE70799069808430690FFE7069840F232
:1043D0000841C4F20101086040F20C40C4F201003F
:1043E0000068069007990698884306900998807996
:1043F0008006002805D5FFE7079906980843069030
:10440000FFE7069840F20C41C4F20101086040F257
:104410000440C4F20100006806900799069888439A
:104420000690099880798007002805D5FFE707994D
:10443000069808430690FFE7069840F20441C4F24C
:104440000101086040F20040C4F2010000680690DB
:10445000079906988843069009988079C00728B183
:10446000FFE70799069808430690FFE7069840F291
:104470000041C4F201010860FFE7FFE7089801303E
:10448000089053E60BB0704782B00190ADF802106F
:104490008DF801209DF8010028B1FFE7BDF802006A
:1044A0000199886104E0BDF8020001998862FFE784
:1044B00002B0704743F26470C2F2000000687047B7
:1044C00083B001900091019890F8410020283BD1E1
:1044D000FFE7FFE7019890F84000012804D1FFE7CB
:1044E00002208DF80B0033E00199012081F8400093
:1044F000FFE7FFE70199242081F841000198016856
:10450000086820F00100086001980168086820F43C
:1045100080500860009A019801680868104308609C
:1045200001980168086840F00100086001992020A6
:1045300081F84100FFE70199002081F84000FFE782
:1045400000208DF80B0003E002208DF80B00FFE740
:104550009DF80B0003B0704784B00290019102985F
:1045600090F84100202840D1FFE7FFE7029890F83B
:104570004000012804D1FFE702208DF80F0038E049
:104580000299012081F84000FFE7FFE7029924200B
:1045900081F8410002980168086820F00100086075
:1045A0000298006800680090009820F47060009005
:1045B0000199009840EA012000900098029909684A
:1045C000086002980168086840F0010008600299DC
:1045D000202081F84100FFE70299002081F8400087
:1045E000FFE700208DF80F0003E002208DF80F0098
:1045F000FFE79DF80F0004B07047000082B0019003
:10460000FFE741F26000C4F20200016841F00101DD
:104610000160006800F0010000900098FFE7019A37
:104620000421C4F2010108681043086002B0704719
:1046300080B582B00090009820B9FFE701208DF886
:10464000070021E00099242081F8410000980168CA
:10465000086820F001000860009800F049FB00990C
:1046600000204864009981F841000099086300998E
:1046700081F84200FFE70099002081F84000FFE741
:1046800000208DF80700FFE79DF8070002B080BD0D
:1046900080B584B003900398006880690290039805
:1046A0000068006801900398406B30B1FFE7039801
:1046B000436B0299019A9847FFE704B080BD000060
:1046C00081B000900098406C01B0704781B00090BC
:1046D000009890F8410001B07047000080B582B0AA
:1046E0000090009820B9FFE701208DF807007BE0DB
:1046F000009890F8410040B9FFE70099002081F848
:104700004000009800F0F8FAFFE70099242081F8B3
:10471000410000980168086820F0010008600098D6
:104720000168406820F0706008610098016888683E
:1047300020F4004088600098C068012807D1FFE796
:1047400000980168806840F40040886006E00098A6
:104750000168806840F404408860FFE70098C06802
:10476000022807D1FFE700980168486840F400601C
:10477000486006E000980168486820F400604860DE
:10478000FFE700980168486848F20002C0F2002282
:104790001043486000980168C86820F40040C86071
:1047A000009A1168106953699269184340EA02201F
:1047B000C860009A1168D069126A104308600098B6
:1047C0000168086840F00100086000990020486412
:1047D000009A202182F8411000990863009981F81D
:1047E00042008DF80700FFE79DF8070002B080BD8A
:1047F00010B588B084460C980B98DDF828E0CDF809
:1048000018C0ADF81610ADF81420ADF81230ADF8A0
:104810001000069890F84100202840F02681FFE71C
:104820000A9820B1FFE7BDF8100040B9FFE70699EC
:104830004FF40070486401208DF81F0019E1FFE774
:10484000069890F84000012804D1FFE702208DF877
:104850001F000EE10699012081F84000FFE7FFE705
:10486000FFF728FE0390069803996A4611604FF4FB
:1048700000410122192304F043FC20B1FFE701208D
:104880008DF81F00F5E00699222081F84100069975
:10489000402081F842000699002048640A99069A4F
:1048A0005162BDF81010069A518506994863069822
:1048B000BDF81610BDF81420BDF81230DDF830C078
:1048C000039CEE46CEF80440CEF800C004F02EFB68
:1048D00050B1FFE7FFE70699002081F84000FFE7AD
:1048E00001208DF81F00C4E00698408DB0F5807F50
:1048F00014D3FFE70699FF2008850698BDF8161027
:1049000090F82820EC4642F20043C8F20003CCF8AD
:1049100000304FF0807304F0C9FB14E00698408D1E
:10492000069908850698BDF8161090F82820EC46E0
:1049300042F20043C8F20003CCF800304FF000739D
:1049400004F0B4FBFFE7FFE706980C9B03996A4667
:1049500011600421002204F0D3FB20B1FFE7012005
:104960008DF81F0085E006980068406A0699496A3C
:1049700008700699486A013048620699088D013826
:1049800008850699488D013848850698408DE8B31A
:10499000FFE70698008DC8BBFFE706980C9B0399BC
:1049A0006A4611608021002204F0AAFB20B1FFE7D3
:1049B00001208DF81F005CE00698408DB0F5807FE7
:1049C00011D3FFE70699FF2008850698BDF8161059
:1049D00090F82820EC460023CCF800304FF080738C
:1049E00004F064FB11E00698408D0699088506984E
:1049F000BDF8161090F82820EC460023CCF80030C3
:104A00004FF0007304F052FBFFE7FFE7FFE7069863
:104A1000408D002898D1FFE706980C99039A04F07E
:104A2000D1FB20B1FFE701208DF81F0021E006989F
:104A300001682020C86106990A6851684EF6000393
:104A4000CFF6006319405160069981F8410006993C
:104A5000002081F84200FFE70699002081F840001D
:104A6000FFE700208DF81F0003E002208DF81F00F3
:104A7000FFE79DF81F0008B010BD000010B588B01A
:104A800084460C980B98DDF828E0CDF818C0ADF8F6
:104A90001610ADF81420ADF81230ADF810000698DD
:104AA00090F84100202840F01B81FFE70A9820B1D0
:104AB000FFE7BDF8100040B9FFE706994FF400701A
:104AC000486401208DF81F000EE1FFE7069890F87A
:104AD0004000012804D1FFE702208DF81F0003E108
:104AE0000699012081F84000FFE7FFE7FFF7E2FCAD
:104AF0000390069803996A4611604FF40041012221
:104B0000192304F0FDFA20B1FFE701208DF81F0002
:104B1000EAE00699212081F841000699402081F8B9
:104B200042000699002048640A99069A5162BDF82D
:104B30001010069A5185069948630698BDF816101C
:104B4000BDF81420BDF81230DDF830C0039CEE46ED
:104B5000CEF80440CEF800C004F048FA50B1FFE7A8
:104B6000FFE70699002081F84000FFE701208DF85B
:104B70001F00B9E00698408DB0F5807F11D3FFE7A4
:104B80000699FF2008850698BDF8161090F8282091
:104B9000EC460023CCF800304FF0807304F086FA26
:104BA00011E00698408D069908850698BDF8161004
:104BB00090F82820EC460023CCF800304FF000732A
:104BC00004F074FAFFE7FFE706980C99039A04F0E3
:104BD0004BFB20B1FFE701208DF81F0084E0069811
:104BE0000168406A007888620699486A0130486224
:104BF0000699488D013848850699088D0138088541
:104C00000698408DE8B3FFE70698008DC8BBFFE724
:104C100006980C9B03996A4611608021002204F0DB
:104C20006FFA20B1FFE701208DF81F005CE00698C5
:104C3000408DB0F5807F11D3FFE70699FF200885EE
:104C40000698BDF8161090F82820EC460023CCF802
:104C500000304FF0807304F029FA11E00698408D7F
:104C6000069908850698BDF8161090F82820EC469D
:104C70000023CCF800304FF0007304F017FAFFE780
:104C8000FFE7FFE70698408D00289DD1FFE70698D3
:104C90000C99039A04F096FA20B1FFE701208DF8F1
:104CA0001F0021E0069801682020C86106990A6863
:104CB00051684EF60003CFF6006319405160069923
:104CC00081F841000699002081F84200FFE706992B
:104CD000002081F84000FFE700208DF81F0003E06E
:104CE00002208DF81F00FFE79DF81F0008B010BDDF
:104CF00081B0009001B0704781B0009001B0704762
:104D000040F24820C2F20000026843F26471C2F22D
:104D100000010868104408607047000080B582B048
:104D200000208DF807000320009000F0A9F80098FB
:104D300000F00EF820B1FFE701208DF8070002E037
:104D400000F04AF8FFE79DF8070002B080BD0000C0
:104D500080B582B0019000208DF8030040F2482019
:104D6000C2F20000006878B3FFE740F25400C2F2DC
:104D70000000006840F24821C2F200010A684FF4C6
:104D80007A71B1FBF2F1B0FBF1F002F011FCB0B9B5
:104D9000FFE701980F280DD8FFE701994FF0FF308A
:104DA000002200F055F8019840F24C21C2F20001B7
:104DB000086003E001208DF80300FFE703E0012015
:104DC0008DF80300FFE703E001208DF80300FFE703
:104DD0009DF8030002B080BD80B582B0FFE741F2CC
:104DE0006000C4F20200016841F001010160006846
:104DF00000F0010001900198FFE7FFE741F2580041
:104E0000C4F20200016841F080510160006800F0C6
:104E1000805000900098FFE7052000F031F801F085
:104E200073FB02B080BD000080B582B08DF8070032
:104E30009DF907000DF0CAFE02B080BD80B582B0BA
:104E40008DF807009DF907000DF0DCFE02B080BD73
:104E500080B586B08DF81700049103920DF0EAFE3C
:104E600002909DF91700019002980499039A07F0A7
:104E70007FFB014601980DF0E5FE06B080BD000005
:104E800080B582B0019001980DF0FEFE02B080BDA9
:104E900082B0019001980068009001990120C1F84A
:104EA000D0020199002081F8C802009AB2F854108B
:104EB00041F00101A2F85410009AB2F8541041F0E8
:104EC0000201A2F8541002B07047000080B584B00F
:104ED00003908DF80B109DF80B000146019120B155
:104EE000FFE70198012815D027E00398407A58B1D0
:104EF000FFE708F021FD4EF61051CEF200010868E0
:104F000020F006000860FFE70398D0F8D8020BF005
:104F1000A3FB12E00398D0F8D8020BF083FC0398AF
:104F2000407A48B1FFE74EF61051CEF20001086812
:104F300040F006000860FFE7FFE704B080BD000016
:104F400084B00390ADF80A10ADF808200193BDF8C5
:104F50000A00000600280CD5FFE70398BDF80A10E8
:104F600001F0070101EB810100EBC100103000905E
:104F70000AE00398BDF80A1001EB810100EBC100C3
:104F800000F5A8700090FFE7BDF8080038B9FFE70A
:104F900000990020087301980099C8800AE00099E0
:104FA00001200873019800990881BDF80600009956
:104FB0004881FFE7002004B07047000080B582B050
:104FC00001908DF80310019AD2F8D8029DF80310D1
:104FD00001EB810302EBC302526A0BF0F5F802B059
:104FE00080BD000080B582B001908DF80310019A59
:104FF000D2F8D8029DF8031001EB810302EBC30243
:10500000D2F864210BF086F902B080BD80B584B07F
:1050100002908DF807109DF80700000600280FD5B4
:10502000FFE702989DF8071001F0070101EB8101ED
:1050300000EBC100103000900099012048700FE093
:1050400002989DF8071001F0070101EB810100EBC8
:10505000C10000F5A8700090009900204870FFE79B
:105060009DF8070000F0070000990870FFE702981C
:1050700090F89002012804D1FFE702208DF80F007C
:1050800014E00299012081F89002FFE7FFE70298FF
:10509000006800990CF022FCFFE70299002081F8DB
:1050A0009002FFE700208DF80F00FFE79DF80F004A
:1050B00004B080BD80B584B002908DF807109DF8D3
:1050C000070000F00F0002990979884204D9FFE730
:1050D00001208DF80F004DE09DF807000006002824
:1050E0000FD5FFE702989DF8071001F0070101EBCB
:1050F000810100EBC1001030009000990120487040
:105100000FE002989DF8071001F0070101EB810103
:1051100000EBC10000F5A8700090009900204870D5
:10512000FFE70099002088709DF8070000F0070055
:1051300000990870FFE7029890F89002012804D1C6
:10514000FFE702208DF80F0014E00299012081F89A
:105150009002FFE7FFE70298006800990CF09EFDBF
:10516000FFE70299002081F89002FFE700208DF808
:105170000F00FFE79DF80F0004B080BD80B586B03A
:1051800005900491ADF80E20BDF80E0040040028F3
:1051900076D5FFE705980068B0F8500004990978C3
:1051A00000EBC100059909680844B0F802046FF3E8
:1051B0009F20ADF80C0004988069BDF80C1088425F
:1051C00007D3FFE7BDF80C2004998869801A88612D
:1051D00003E0049900208861FFE704988069F8B92A
:1051E000FFE7FFE7059800680499097830F8210087
:1051F0004BF68F710840ADF80A00BDF80A0080F444
:105200000050ADF80A00BDF80A0048F280010843DA
:1052100005990968049A127821F82200FFE7FFE750
:10522000BDF80E00400600281BD5FFE7FFE7FFE7AB
:10523000059800680499097830F8210048F68F71C4
:105240000840ADF80800BDF8080048F2C001084366
:1052500005990968049A127821F82200FFE7FFE710
:10526000FFE7BDF80C0050B1FFE705980068049A0D
:1052700051691289BDF80C300DF002FBFFE775E0B3
:1052800005980068B0F850000499097800EBC10057
:10529000059909680844B0F806046FF39F20ADF83B
:1052A0000C0004988069BDF80C10884207D3FFE712
:1052B000BDF80C2004998869801A886103E004997C
:1052C00000208861FFE704988069F8B9FFE7FFE7ED
:1052D000059800680499097830F821004BF68F7121
:1052E0000840ADF80600BDF8060080F40050ADF8A7
:1052F0000600BDF8060048F28001084305990968D8
:10530000049A127821F82200FFE7FFE7BDF80E00AB
:10531000400600281BD4FFE7FFE7FFE70598006879
:105320000499097830F8210048F68F710840ADF8EB
:105330000400BDF8040048F2C0010843059909685B
:10534000049A127821F82200FFE7FFE7FFE7BDF893
:105350000C0050B1FFE705980068049A5169528922
:10536000BDF80C300DF08CFAFFE7FFE7BDF80C003C
:1053700006B080BD80B5AAB028902791ADF89A20DC
:10538000BDF89A004006002840F1E181FFE7289827
:105390000068B0F850002799097800EBC1002899FF
:1053A00009680844B0F802046FF39F20ADF892003A
:1053B00027988069BDF89210884207D9FFE7BDF8A9
:1053C000922027998869801A886103E02799002034
:1053D0008861FFE727988069002840F0D780FFE7C1
:1053E000FFE72798407808BBFFE7FFE728980068A9
:1053F000239028980068B0F8501023980844239010
:1054000023982799097800EBC10000F2024022900E
:10541000FFE7229908886FF39F2008802299088867
:1054200040F400400880FFE7FFE71DE02798407840
:10543000012818D1FFE7FFE72898006820902898F6
:105440000068B0F8501020980844209020982799C0
:10545000097800EBC10000F202401F901F99002064
:105460000880FFE7FFE7FFE7FFE7FFE7289800680E
:105470001E902798407808BBFFE7FFE72898006850
:105480001C9028980068B0F850101C9808441C9094
:105490001C982799097800EBC10000F206401B9088
:1054A000FFE71B9908886FF39F2008801B990888E5
:1054B00040F400400880FFE7FFE718E027984078B5
:1054C000012813D1FFE728980068B0F850101E9803
:1054D00008441E901E982799097800EBC10000F23D
:1054E00006401D901D9900200880FFE7FFE7FFE7B9
:1054F0002798C07802281FD1FFE7FFE728980068A7
:105500002799097830F8210048F6BF710840ADF8B6
:105510006600BDF8660080F02000ADF86600BDF8BA
:10552000660048F28001084328990968279A127892
:1055300021F82200FFE7FFE7289827990978FFF76D
:105540003DFDBDF89A00400400281BD5FFE7FFE7AA
:10555000FFE7289800682799097830F8210048F675
:105560008F710840ADF86400BDF864004CF2800112
:10557000084328990968279A127821F82200FFE742
:10558000FFE7FFE700208DF8A700E6E2BDF89A00EC
:10559000400400281BD5FFE7FFE7FFE728980068D5
:1055A0002799097830F8210048F68F710840ADF846
:1055B0006200BDF862004CF2800108432899096836
:1055C000279A127821F82200FFE7FFE7FFE72798E4
:1055D00090F82400012840F0B880FFE7BDF8922041
:1055E0002799486910444861BDF892202799C869F5
:1055F0001044C86127980169006A884209D3FFE70F
:10560000279800692590259A2799086A801A0862C8
:1056100016E02798006A40B9FFE7BDF89200259090
:105620002799002081F8240009E02799002081F8BB
:1056300024002799096A259127990862FFE7FFE767
:10564000FFE727984078002856D1FFE7FFE7289822
:105650000068179028980068B0F850101798084410
:10566000179017982799097800EBC10000F20240C3
:105670001690FFE7169908886FF39F2008802598F9
:1056800030B9FFE71699088840F40040088030E000
:1056900025983E2815D8FFE7FFE725984008159084
:1056A0009DF89400C00720B1FFE7159801301590D0
:1056B000FFE7159A1699088840EA82200880FFE7DC
:1056C00016E0FFE72598400915909DF89400C00664
:1056D00020B9FFE7159801381590FFE7159A16993C
:1056E000088840EA822040F400400880FFE7FFE796
:1056F000FFE7FFE7FFE71DE027984078012818D172
:10570000FFE7FFE728980068149028980068B0F831
:10571000501014980844149014982799097800EBB5
:10572000C10000F202401390259813990880FFE70A
:10573000FFE7FFE7FFE728980068279A5169128979
:10574000BDF894300DF0EEF8FFE7FFE7DDE12898B3
:105750000068B0F850002799097800EBC10028993B
:1057600009680844B0F806046FF39F20ADF8920072
:1057700027988069BDF89210884207D3FFE7BDF8EB
:10578000922027998869801A886103E02799002070
:105790008861FFE727988069002840F0D780FFE7FD
:1057A000FFE72798407808BBFFE7FFE728980068E5
:1057B000129028980068B0F850101298084412907F
:1057C00012982799097800EBC10000F2024011906D
:1057D000FFE7119908886FF39F20088011990888C6
:1057E00040F400400880FFE7FFE71DE0279840787D
:1057F000012818D1FFE7FFE7289800680F90289844
:105800000068B0F850100F9808440F900F9827992F
:10581000097800EBC10000F202400E900E990020C2
:105820000880FFE7FFE7FFE7FFE7FFE7289800684A
:105830000D902798407808BBFFE7FFE7289800689D
:105840000B9028980068B0F850100B9808440B9003
:105850000B982799097800EBC10000F206400A90E6
:10586000FFE70A9908886FF39F2008800A99088843
:1058700040F400400880FFE7FFE718E027984078F1
:10588000012813D1FFE728980068B0F850100D9850
:1058900008440D900D982799097800EBC10000F29B
:1058A00006400C900C9900200880FFE7FFE7FFE717
:1058B0002798C07802281FD1FFE7FFE728980068E3
:1058C0002799097830F8210048F6BF710840ADF8F3
:1058D0002200BDF8220080F02000ADF82200BDF8C3
:1058E000220048F28001084328990968279A127813
:1058F00021F82200FFE7FFE7289827990978FFF7AA
:105900005DFBBDF89A00400400281BD4FFE7FFE7C9
:10591000FFE7289800682799097830F8210048F6B1
:105920008F710840ADF82000BDF820004CF28001D6
:10593000084328990968279A127821F82200FFE77E
:10594000FFE7FFE700208DF8A70006E1BDF89A0009
:10595000400400281BD4FFE7FFE7FFE72898006812
:105960002799097830F8210048F68F710840ADF882
:105970001E00BDF81E004CF28001084328990968FA
:10598000279A127821F82200FFE7FFE7FFE7279820
:1059900090F82400012840F0B680FFE7BDF892207F
:1059A0002799486910444861BDF892202799C86931
:1059B0001044C86127980169006A884209D3FFE74B
:1059C000279800692590259A2799086A801A086205
:1059D00016E02798006A40B9FFE7BDF892002590CD
:1059E0002799002081F8240009E02798006A259073
:1059F000279900200862279981F82400FFE7FFE734
:105A0000FFE728980068069027984078002856D12C
:105A1000FFE7FFE728980068049028980068B0F82E
:105A2000501004980844049004982799097800EBD2
:105A3000C10000F206400390FFE7039908886FF366
:105A40009F200880259830B9FFE70399088840F423
:105A50000040088030E025983E2815D8FFE7FFE792
:105A60002598400802909DF89400C00720B1FFE7F8
:105A7000029801300290FFE7029A0399088840EAF1
:105A800082200880FFE716E0FFE725984009029092
:105A90009DF89400C00620B9FFE7029801380290F3
:105AA000FFE7029A0399088840EA822040F4004008
:105AB0000880FFE7FFE7FFE7FFE7FFE718E0279829
:105AC0004078012813D1FFE728980068B0F85010FB
:105AD00006980844069006982799097800EBC100BB
